{
  "_format": "hh-sol-artifact-1",
  "contractName": "FreelanceEscrow",
  "sourceName": "contracts/FreelanceEscrow.sol",
  "abi": [
    {
      "inputs": [
        {
          "internalType": "address",
          "name": "_userRegistryAddress",
          "type": "address"
        }
      ],
      "stateMutability": "nonpayable",
      "type": "constructor"
    },
    {
      "anonymous": false,
      "inputs": [
        {
          "indexed": true,
          "internalType": "uint256",
          "name": "jobId",
          "type": "uint256"
        },
        {
          "indexed": true,
          "internalType": "address",
          "name": "client",
          "type": "address"
        },
        {
          "indexed": false,
          "internalType": "uint256",
          "name": "amount",
          "type": "uint256"
        }
      ],
      "name": "FundsDeposited",
      "type": "event"
    },
    {
      "anonymous": false,
      "inputs": [
        {
          "indexed": true,
          "internalType": "uint256",
          "name": "jobId",
          "type": "uint256"
        },
        {
          "indexed": true,
          "internalType": "address",
          "name": "client",
          "type": "address"
        }
      ],
      "name": "JobCancelled",
      "type": "event"
    },
    {
      "anonymous": false,
      "inputs": [
        {
          "indexed": true,
          "internalType": "uint256",
          "name": "jobId",
          "type": "uint256"
        },
        {
          "indexed": true,
          "internalType": "address",
          "name": "client",
          "type": "address"
        },
        {
          "indexed": false,
          "internalType": "string",
          "name": "description",
          "type": "string"
        },
        {
          "indexed": false,
          "internalType": "uint256",
          "name": "amount",
          "type": "uint256"
        }
      ],
      "name": "JobPosted",
      "type": "event"
    },
    {
      "anonymous": false,
      "inputs": [
        {
          "indexed": true,
          "internalType": "uint256",
          "name": "jobId",
          "type": "uint256"
        },
        {
          "indexed": true,
          "internalType": "address",
          "name": "client",
          "type": "address"
        },
        {
          "indexed": true,
          "internalType": "address",
          "name": "freelancer",
          "type": "address"
        },
        {
          "indexed": false,
          "internalType": "uint256",
          "name": "amount",
          "type": "uint256"
        }
      ],
      "name": "PaymentReleased",
      "type": "event"
    },
    {
      "anonymous": false,
      "inputs": [
        {
          "indexed": true,
          "internalType": "uint256",
          "name": "jobId",
          "type": "uint256"
        },
        {
          "indexed": true,
          "internalType": "address",
          "name": "freelancer",
          "type": "address"
        }
      ],
      "name": "WorkSubmitted",
      "type": "event"
    },
    {
      "inputs": [
        {
          "internalType": "uint256",
          "name": "_jobId",
          "type": "uint256"
        }
      ],
      "name": "cancelJob",
      "outputs": [],
      "stateMutability": "nonpayable",
      "type": "function"
    },
    {
      "inputs": [
        {
          "internalType": "uint256",
          "name": "_jobId",
          "type": "uint256"
        }
      ],
      "name": "depositFunds",
      "outputs": [],
      "stateMutability": "payable",
      "type": "function"
    },
    {
      "inputs": [
        {
          "internalType": "uint256",
          "name": "_jobId",
          "type": "uint256"
        }
      ],
      "name": "getJob",
      "outputs": [
        {
          "internalType": "address",
          "name": "client",
          "type": "address"
        },
        {
          "internalType": "address",
          "name": "freelancer",
          "type": "address"
        },
        {
          "internalType": "uint256",
          "name": "amount",
          "type": "uint256"
        },
        {
          "internalType": "string",
          "name": "description",
          "type": "string"
        },
        {
          "internalType": "bool",
          "name": "fundsDeposited",
          "type": "bool"
        },
        {
          "internalType": "bool",
          "name": "workSubmitted",
          "type": "bool"
        },
        {
          "internalType": "bool",
          "name": "paymentReleased",
          "type": "bool"
        }
      ],
      "stateMutability": "view",
      "type": "function"
    },
    {
      "inputs": [
        {
          "internalType": "uint256",
          "name": "",
          "type": "uint256"
        }
      ],
      "name": "jobs",
      "outputs": [
        {
          "internalType": "address payable",
          "name": "client",
          "type": "address"
        },
        {
          "internalType": "address payable",
          "name": "freelancer",
          "type": "address"
        },
        {
          "internalType": "uint256",
          "name": "amount",
          "type": "uint256"
        },
        {
          "internalType": "string",
          "name": "description",
          "type": "string"
        },
        {
          "internalType": "bool",
          "name": "fundsDeposited",
          "type": "bool"
        },
        {
          "internalType": "bool",
          "name": "workSubmitted",
          "type": "bool"
        },
        {
          "internalType": "bool",
          "name": "paymentReleased",
          "type": "bool"
        }
      ],
      "stateMutability": "view",
      "type": "function"
    },
    {
      "inputs": [],
      "name": "nextJobId",
      "outputs": [
        {
          "internalType": "uint256",
          "name": "",
          "type": "uint256"
        }
      ],
      "stateMutability": "view",
      "type": "function"
    },
    {
      "inputs": [
        {
          "internalType": "address",
          "name": "_freelancer",
          "type": "address"
        },
        {
          "internalType": "string",
          "name": "_description",
          "type": "string"
        },
        {
          "internalType": "uint256",
          "name": "_amount",
          "type": "uint256"
        }
      ],
      "name": "postJob",
      "outputs": [],
      "stateMutability": "nonpayable",
      "type": "function"
    },
    {
      "inputs": [
        {
          "internalType": "uint256",
          "name": "_jobId",
          "type": "uint256"
        }
      ],
      "name": "releasePayment",
      "outputs": [],
      "stateMutability": "nonpayable",
      "type": "function"
    },
    {
      "inputs": [
        {
          "internalType": "uint256",
          "name": "_jobId",
          "type": "uint256"
        }
      ],
      "name": "submitWork",
      "outputs": [],
      "stateMutability": "nonpayable",
      "type": "function"
    },
    {
      "inputs": [],
      "name": "userRegistry",
      "outputs": [
        {
          "internalType": "contract UserRegistry",
          "name": "",
          "type": "address"
        }
      ],
      "stateMutability": "view",
      "type": "function"
    },
    {
      "stateMutability": "payable",
      "type": "receive"
    }
  ],
  "bytecode": "0x60806040523480156200001157600080fd5b5060405162002abb38038062002abb833981810160405281019062000037919062000110565b600073ffffffffffffffffffffffffffffffffffffffff168173ffffffffffffffffffffffffffffffffffffffff161415620000aa576040517f08c379a0000000000000000000000000000000000000000000000000000000008152600401620000a190620001a4565b60405180910390fd5b806000806101000a81548173ffffffffffffffffffffffffffffffffffffffff021916908373ffffffffffffffffffffffffffffffffffffffff16021790555060016002819055505062000225565b6000815190506200010a816200020b565b92915050565b6000602082840312156200012357600080fd5b60006200013384828501620000f9565b91505092915050565b60006200014b602383620001c6565b91507f55736572526567697374727920616464726573732063616e6e6f74206265207a60008301527f65726f00000000000000000000000000000000000000000000000000000000006020830152604082019050919050565b60006020820190508181036000830152620001bf816200013c565b9050919050565b600082825260208201905092915050565b6000620001e482620001eb565b9050919050565b600073ffffffffffffffffffffffffffffffffffffffff82169050919050565b6200021681620001d7565b81146200022257600080fd5b50565b61288680620002356000396000f3fe60806040526004361061008a5760003560e01c806388685cd91161005957806388685cd914610182578063b0c2aa5e146101ab578063bf22c457146101d6578063c00e64ad14610219578063c4c1152314610242576100ca565b8063180aedf3146100cf5780631dffa3dc146101125780633b76594d1461013b5780635c7460d614610157576100ca565b366100ca576040517f08c379a00000000000000000000000000000000000000000000000000000000081526004016100c19061243a565b60405180910390fd5b600080fd5b3480156100db57600080fd5b506100f660048036038101906100f19190611863565b61026b565b60405161010997969594939291906121a3565b60405180910390f35b34801561011e57600080fd5b5061013960048036038101906101349190611863565b61039c565b005b61015560048036038101906101509190611863565b61072d565b005b34801561016357600080fd5b5061016c6109f5565b604051610179919061228f565b60405180910390f35b34801561018e57600080fd5b506101a960048036038101906101a49190611863565b610a19565b005b3480156101b757600080fd5b506101c0610de2565b6040516101cd919061259a565b60405180910390f35b3480156101e257600080fd5b506101fd60048036038101906101f89190611863565b610de8565b6040516102109796959493929190612219565b60405180910390f35b34801561022557600080fd5b50610240600480360381019061023b91906117d3565b610f39565b005b34801561024e57600080fd5b5061026960048036038101906102649190611863565b6113c1565b005b60016020528060005260406000206000915090508060000160009054906101000a900473ffffffffffffffffffffffffffffffffffffffff16908060010160009054906101000a900473ffffffffffffffffffffffffffffffffffffffff16908060020154908060030180546102e0906126f2565b80601f016020809104026020016040519081016040528092919081815260200182805461030c906126f2565b80156103595780601f1061032e57610100808354040283529160200191610359565b820191906000526020600020905b81548152906001019060200180831161033c57829003601f168201915b5050505050908060040160009054906101000a900460ff16908060040160019054906101000a900460ff16908060040160029054906101000a900460ff16905087565b60008054906101000a900473ffffffffffffffffffffffffffffffffffffffff1673ffffffffffffffffffffffffffffffffffffffff166384b7964f336040518263ffffffff1660e01b81526004016103f59190612188565b60206040518083038186803b15801561040d57600080fd5b505afa158015610421573d6000803e3d6000fd5b505050506040513d601f19601f82011682018060405250810190610445919061183a565b610484576040517f08c379a000000000000000000000000000000000000000000000000000000000815260040161047b9061245a565b60405180910390fd5b3373ffffffffffffffffffffffffffffffffffffffff166001600083815260200190815260200160002060000160009054906101000a900473ffffffffffffffffffffffffffffffffffffffff1673ffffffffffffffffffffffffffffffffffffffff1614610528576040517f08c379a000000000000000000000000000000000000000000000000000000000815260040161051f906122fa565b60405180910390fd5b6001600082815260200190815260200160002060040160009054906101000a900460ff1661058b576040517f08c379a00000000000000000000000000000000000000000000000000000000081526004016105829061237a565b60405180910390fd5b6001600082815260200190815260200160002060040160019054906101000a900460ff16156105ef576040517f08c379a00000000000000000000000000000000000000000000000000000000081526004016105e69061231a565b60405180910390fd5b6001600082815260200190815260200160002060040160029054906101000a900460ff1615610653576040517f08c379a000000000000000000000000000000000000000000000000000000000815260040161064a9061239a565b60405180910390fd5b6001600082815260200190815260200160002060000160009054906101000a900473ffffffffffffffffffffffffffffffffffffffff1673ffffffffffffffffffffffffffffffffffffffff166108fc60016000848152602001908152602001600020600201549081150290604051600060405180830381858888f193505050501580156106e5573d6000803e3d6000fd5b503373ffffffffffffffffffffffffffffffffffffffff16817ff1ab0865975dad5c69ae8e4baaf13114c875728afa7cc86368534c22a631d0b060405160405180910390a350565b60008054906101000a900473ffffffffffffffffffffffffffffffffffffffff1673ffffffffffffffffffffffffffffffffffffffff166384b7964f336040518263ffffffff1660e01b81526004016107869190612188565b60206040518083038186803b15801561079e57600080fd5b505afa1580156107b2573d6000803e3d6000fd5b505050506040513d601f19601f820116820180604052508101906107d6919061183a565b610815576040517f08c379a000000000000000000000000000000000000000000000000000000000815260040161080c906123da565b60405180910390fd5b3373ffffffffffffffffffffffffffffffffffffffff166001600083815260200190815260200160002060000160009054906101000a900473ffffffffffffffffffffffffffffffffffffffff1673ffffffffffffffffffffffffffffffffffffffff16146108b9576040517f08c379a00000000000000000000000000000000000000000000000000000000081526004016108b09061235a565b60405180910390fd5b6001600082815260200190815260200160002060040160009054906101000a900460ff161561091d576040517f08c379a00000000000000000000000000000000000000000000000000000000081526004016109149061233a565b60405180910390fd5b60016000828152602001908152602001600020600201543414610975576040517f08c379a000000000000000000000000000000000000000000000000000000000815260040161096c9061253a565b60405180910390fd5b600180600083815260200190815260200160002060040160006101000a81548160ff0219169083151502179055503373ffffffffffffffffffffffffffffffffffffffff16817fe030e47e27825a2ad1b19e4cf2e70bfbfb3124af275c7727a82b114ba7b29a85346040516109ea919061259a565b60405180910390a350565b60008054906101000a900473ffffffffffffffffffffffffffffffffffffffff1681565b60008054906101000a900473ffffffffffffffffffffffffffffffffffffffff1673ffffffffffffffffffffffffffffffffffffffff166384b7964f336040518263ffffffff1660e01b8152600401610a729190612188565b60206040518083038186803b158015610a8a57600080fd5b505afa158015610a9e573d6000803e3d6000fd5b505050506040513d601f19601f82011682018060405250810190610ac2919061183a565b610b01576040517f08c379a0000000000000000000000000000000000000000000000000000000008152600401610af8906124da565b60405180910390fd5b3373ffffffffffffffffffffffffffffffffffffffff166001600083815260200190815260200160002060000160009054906101000a900473ffffffffffffffffffffffffffffffffffffffff1673ffffffffffffffffffffffffffffffffffffffff1614610ba5576040517f08c379a0000000000000000000000000000000000000000000000000000000008152600401610b9c9061247a565b60405180910390fd5b6001600082815260200190815260200160002060040160019054906101000a900460ff16610c08576040517f08c379a0000000000000000000000000000000000000000000000000000000008152600401610bff9061255a565b60405180910390fd5b6001600082815260200190815260200160002060040160029054906101000a900460ff1615610c6c576040517f08c379a0000000000000000000000000000000000000000000000000000000008152600401610c63906123ba565b60405180910390fd5b600180600083815260200190815260200160002060040160026101000a81548160ff0219169083151502179055506001600082815260200190815260200160002060010160009054906101000a900473ffffffffffffffffffffffffffffffffffffffff1673ffffffffffffffffffffffffffffffffffffffff166108fc60016000848152602001908152602001600020600201549081150290604051600060405180830381858888f19350505050158015610d2c573d6000803e3d6000fd5b506001600082815260200190815260200160002060010160009054906101000a900473ffffffffffffffffffffffffffffffffffffffff1673ffffffffffffffffffffffffffffffffffffffff163373ffffffffffffffffffffffffffffffffffffffff16827f23a1f1d698899279655350f84344b87245426099e1c060807bd35275582d2d0e6001600086815260200190815260200160002060020154604051610dd7919061259a565b60405180910390a450565b60025481565b60008060006060600080600080600160008a815260200190815260200160002090508060000160009054906101000a900473ffffffffffffffffffffffffffffffffffffffff168160010160009054906101000a900473ffffffffffffffffffffffffffffffffffffffff168260020154836003018460040160009054906101000a900460ff168560040160019054906101000a900460ff168660040160029054906101000a900460ff16838054610e9f906126f2565b80601f0160208091040260200160405190810160405280929190818152602001828054610ecb906126f2565b8015610f185780601f10610eed57610100808354040283529160200191610f18565b820191906000526020600020905b815481529060010190602001808311610efb57829003601f168201915b50505050509350975097509750975097509750975050919395979092949650565b60008054906101000a900473ffffffffffffffffffffffffffffffffffffffff1673ffffffffffffffffffffffffffffffffffffffff166384b7964f336040518263ffffffff1660e01b8152600401610f929190612188565b60206040518083038186803b158015610faa57600080fd5b505afa158015610fbe573d6000803e3d6000fd5b505050506040513d601f19601f82011682018060405250810190610fe2919061183a565b611021576040517f08c379a0000000000000000000000000000000000000000000000000000000008152600401611018906122da565b60405180910390fd5b60008054906101000a900473ffffffffffffffffffffffffffffffffffffffff1673ffffffffffffffffffffffffffffffffffffffff1663be597e2d846040518263ffffffff1660e01b815260040161107a9190612188565b60206040518083038186803b15801561109257600080fd5b505afa1580156110a6573d6000803e3d6000fd5b505050506040513d601f19601f820116820180604052508101906110ca919061183a565b611109576040517f08c379a0000000000000000000000000000000000000000000000000000000008152600401611100906124fa565b60405180910390fd5b600073ffffffffffffffffffffffffffffffffffffffff168373ffffffffffffffffffffffffffffffffffffffff161415611179576040517f08c379a0000000000000000000000000000000000000000000000000000000008152600401611170906123fa565b60405180910390fd5b600081116111bc576040517f08c379a00000000000000000000000000000000000000000000000000000000081526004016111b39061249a565b60405180910390fd5b6040518060e001604052803373ffffffffffffffffffffffffffffffffffffffff1681526020018473ffffffffffffffffffffffffffffffffffffffff1681526020018281526020018381526020016000151581526020016000151581526020016000151581525060016000600254815260200190815260200160002060008201518160000160006101000a81548173ffffffffffffffffffffffffffffffffffffffff021916908373ffffffffffffffffffffffffffffffffffffffff16021790555060208201518160010160006101000a81548173ffffffffffffffffffffffffffffffffffffffff021916908373ffffffffffffffffffffffffffffffffffffffff1602179055506040820151816002015560608201518160030190805190602001906112ed929190611689565b5060808201518160040160006101000a81548160ff02191690831515021790555060a08201518160040160016101000a81548160ff02191690831515021790555060c08201518160040160026101000a81548160ff0219169083151502179055509050503373ffffffffffffffffffffffffffffffffffffffff166002547fd347156c0e050f531434f3eac5fc2137040ab077ca656f465275ebe566aaf115848460405161139c9291906122aa565b60405180910390a3600260008154809291906113b790612724565b9190505550505050565b60008054906101000a900473ffffffffffffffffffffffffffffffffffffffff1673ffffffffffffffffffffffffffffffffffffffff1663be597e2d336040518263ffffffff1660e01b815260040161141a9190612188565b60206040518083038186803b15801561143257600080fd5b505afa158015611446573d6000803e3d6000fd5b505050506040513d601f19601f8201168201806040525081019061146a919061183a565b6114a9576040517f08c379a00000000000000000000000000000000000000000000000000000000081526004016114a0906124ba565b60405180910390fd5b3373ffffffffffffffffffffffffffffffffffffffff166001600083815260200190815260200160002060010160009054906101000a900473ffffffffffffffffffffffffffffffffffffffff1673ffffffffffffffffffffffffffffffffffffffff161461154d576040517f08c379a00000000000000000000000000000000000000000000000000000000081526004016115449061241a565b60405180910390fd5b6001600082815260200190815260200160002060040160009054906101000a900460ff166115b0576040517f08c379a00000000000000000000000000000000000000000000000000000000081526004016115a79061251a565b60405180910390fd5b6001600082815260200190815260200160002060040160019054906101000a900460ff1615611614576040517f08c379a000000000000000000000000000000000000000000000000000000000815260040161160b9061257a565b60405180910390fd5b600180600083815260200190815260200160002060040160016101000a81548160ff0219169083151502179055503373ffffffffffffffffffffffffffffffffffffffff16817f2e1034180f85502b3a04560be6ed4c24fe9b9c9e0bd7f4e09720494ac48859fa60405160405180910390a350565b828054611695906126f2565b90600052602060002090601f0160209004810192826116b757600085556116fe565b82601f106116d057805160ff19168380011785556116fe565b828001600101855582156116fe579182015b828111156116fd5782518255916020019190600101906116e2565b5b50905061170b919061170f565b5090565b5b80821115611728576000816000905550600101611710565b5090565b600061173f61173a846125e6565b6125b5565b90508281526020810184848401111561175757600080fd5b6117628482856126b0565b509392505050565b6000813590506117798161280b565b92915050565b60008151905061178e81612822565b92915050565b600082601f8301126117a557600080fd5b81356117b584826020860161172c565b91505092915050565b6000813590506117cd81612839565b92915050565b6000806000606084860312156117e857600080fd5b60006117f68682870161176a565b935050602084013567ffffffffffffffff81111561181357600080fd5b61181f86828701611794565b9250506040611830868287016117be565b9150509250925092565b60006020828403121561184c57600080fd5b600061185a8482850161177f565b91505092915050565b60006020828403121561187557600080fd5b6000611883848285016117be565b91505092915050565b61189581612644565b82525050565b6118a481612632565b82525050565b6118b381612656565b82525050565b6118c28161268c565b82525050565b60006118d382612616565b6118dd8185612621565b93506118ed8185602086016126bf565b6118f6816127fa565b840191505092915050565b600061190e602583612621565b91507f4f6e6c79207265676973746572656420636c69656e74732063616e20706f737460008301527f206a6f62730000000000000000000000000000000000000000000000000000006020830152604082019050919050565b6000611974602383612621565b91507f4f6e6c792074686520636c69656e742063616e2063616e63656c20746869732060008301527f6a6f6200000000000000000000000000000000000000000000000000000000006020830152604082019050919050565b60006119da602f83612621565b91507f43616e6e6f742063616e63656c206a6f6220616674657220776f726b2068617360008301527f206265656e207375626d697474656400000000000000000000000000000000006020830152604082019050919050565b6000611a40602483612621565b91507f46756e647320616c7265616479206465706f736974656420666f72207468697360008301527f206a6f62000000000000000000000000000000000000000000000000000000006020830152604082019050919050565b6000611aa6602e83612621565b91507f4f6e6c792074686520636c69656e742063616e206465706f7369742066756e6460008301527f7320666f722074686973206a6f620000000000000000000000000000000000006020830152604082019050919050565b6000611b0c602983612621565b91507f46756e6473206d757374206265206465706f736974656420746f2063616e636560008301527f6c20746865206a6f6200000000000000000000000000000000000000000000006020830152604082019050919050565b6000611b72601883612621565b91507f5061796d656e7420616c72656164792072656c656173656400000000000000006000830152602082019050919050565b6000611bb2602583612621565b91507f5061796d656e7420616c72656164792072656c656173656420666f722074686960008301527f73206a6f620000000000000000000000000000000000000000000000000000006020830152604082019050919050565b6000611c18602983612621565b91507f4f6e6c79207265676973746572656420636c69656e74732063616e206465706f60008301527f7369742066756e647300000000000000000000000000000000000000000000006020830152604082019050919050565b6000611c7e602183612621565b91507f467265656c616e63657220616464726573732063616e6e6f74206265207a657260008301527f6f000000000000000000000000000000000000000000000000000000000000006020830152604082019050919050565b6000611ce4603083612621565b91507f4f6e6c792074686520667265656c616e6365722063616e207375626d6974207760008301527f6f726b20666f722074686973206a6f62000000000000000000000000000000006020830152604082019050919050565b6000611d4a603a83612621565b91507f446972656374204574686572207472616e7366657273206e6f7420616c6c6f7760008301527f656420776974686f757420612066756e6374696f6e2063616c6c0000000000006020830152604082019050919050565b6000611db0602783612621565b91507f4f6e6c79207265676973746572656420636c69656e74732063616e2063616e6360008301527f656c206a6f6273000000000000000000000000000000000000000000000000006020830152604082019050919050565b6000611e16603083612621565b91507f4f6e6c792074686520636c69656e742063616e2072656c65617365207061796d60008301527f656e7420666f722074686973206a6f62000000000000000000000000000000006020830152604082019050919050565b6000611e7c602483612621565b91507f4a6f6220616d6f756e74206d7573742062652067726561746572207468616e2060008301527f7a65726f000000000000000000000000000000000000000000000000000000006020830152604082019050919050565b6000611ee2602b83612621565b91507f4f6e6c79207265676973746572656420667265656c616e636572732063616e2060008301527f7375626d697420776f726b0000000000000000000000000000000000000000006020830152604082019050919050565b6000611f48602b83612621565b91507f4f6e6c79207265676973746572656420636c69656e74732063616e2072656c6560008301527f617365207061796d656e740000000000000000000000000000000000000000006020830152604082019050919050565b6000611fae601d83612621565b91507f467265656c616e636572206d75737420626520726567697374657265640000006000830152602082019050919050565b6000611fee603483612621565b91507f46756e6473206d757374206265206465706f7369746564206265666f7265207760008301527f6f726b2063616e206265207375626d69747465640000000000000000000000006020830152604082019050919050565b6000612054602683612621565b91507f4465706f736974656420616d6f756e74206d757374206d61746368206a6f622060008301527f616d6f756e7400000000000000000000000000000000000000000000000000006020830152604082019050919050565b60006120ba603583612621565b91507f576f726b206d757374206265207375626d6974746564206265666f726520706160008301527f796d656e742063616e2062652072656c656173656400000000000000000000006020830152604082019050919050565b6000612120602383612621565b91507f576f726b20616c7265616479207375626d697474656420666f7220746869732060008301527f6a6f6200000000000000000000000000000000000000000000000000000000006020830152604082019050919050565b61218281612682565b82525050565b600060208201905061219d600083018461189b565b92915050565b600060e0820190506121b8600083018a61188c565b6121c5602083018961188c565b6121d26040830188612179565b81810360608301526121e481876118c8565b90506121f360808301866118aa565b61220060a08301856118aa565b61220d60c08301846118aa565b98975050505050505050565b600060e08201905061222e600083018a61189b565b61223b602083018961189b565b6122486040830188612179565b818103606083015261225a81876118c8565b905061226960808301866118aa565b61227660a08301856118aa565b61228360c08301846118aa565b98975050505050505050565b60006020820190506122a460008301846118b9565b92915050565b600060408201905081810360008301526122c481856118c8565b90506122d36020830184612179565b9392505050565b600060208201905081810360008301526122f381611901565b9050919050565b6000602082019050818103600083015261231381611967565b9050919050565b60006020820190508181036000830152612333816119cd565b9050919050565b6000602082019050818103600083015261235381611a33565b9050919050565b6000602082019050818103600083015261237381611a99565b9050919050565b6000602082019050818103600083015261239381611aff565b9050919050565b600060208201905081810360008301526123b381611b65565b9050919050565b600060208201905081810360008301526123d381611ba5565b9050919050565b600060208201905081810360008301526123f381611c0b565b9050919050565b6000602082019050818103600083015261241381611c71565b9050919050565b6000602082019050818103600083015261243381611cd7565b9050919050565b6000602082019050818103600083015261245381611d3d565b9050919050565b6000602082019050818103600083015261247381611da3565b9050919050565b6000602082019050818103600083015261249381611e09565b9050919050565b600060208201905081810360008301526124b381611e6f565b9050919050565b600060208201905081810360008301526124d381611ed5565b9050919050565b600060208201905081810360008301526124f381611f3b565b9050919050565b6000602082019050818103600083015261251381611fa1565b9050919050565b6000602082019050818103600083015261253381611fe1565b9050919050565b6000602082019050818103600083015261255381612047565b9050919050565b60006020820190508181036000830152612573816120ad565b9050919050565b6000602082019050818103600083015261259381612113565b9050919050565b60006020820190506125af6000830184612179565b92915050565b6000604051905081810181811067ffffffffffffffff821117156125dc576125db6127cb565b5b8060405250919050565b600067ffffffffffffffff821115612601576126006127cb565b5b601f19601f8301169050602081019050919050565b600081519050919050565b600082825260208201905092915050565b600061263d82612662565b9050919050565b600061264f82612662565b9050919050565b60008115159050919050565b600073ffffffffffffffffffffffffffffffffffffffff82169050919050565b6000819050919050565b60006126978261269e565b9050919050565b60006126a982612662565b9050919050565b82818337600083830152505050565b60005b838110156126dd5780820151818401526020810190506126c2565b838111156126ec576000848401525b50505050565b6000600282049050600182168061270a57607f821691505b6020821081141561271e5761271d61279c565b5b50919050565b600061272f82612682565b91507fffffffffffffffffffffffffffffffffffffffffffffffffffffffffffffffff8214156127625761276161276d565b5b600182019050919050565b7f4e487b7100000000000000000000000000000000000000000000000000000000600052601160045260246000fd5b7f4e487b7100000000000000000000000000000000000000000000000000000000600052602260045260246000fd5b7f4e487b7100000000000000000000000000000000000000000000000000000000600052604160045260246000fd5b6000601f19601f8301169050919050565b61281481612632565b811461281f57600080fd5b50565b61282b81612656565b811461283657600080fd5b50565b61284281612682565b811461284d57600080fd5b5056fea26469706673582212202410f8598945a2cd24bc0b39545a53221f12fa4109c6b84c88c4c1835eb33a6d64736f6c63430008000033",
  "linkReferences": {},
  "deployedLinkReferences": {}
}