{
  "_format": "hh-sol-artifact-1",
  "contractName": "FreelanceEscrow",
  "sourceName": "contracts/FreelanceEscrow.sol",
  "abi": [
    {
      "inputs": [
        {
          "internalType": "address",
          "name": "_userRegistryAddress",
          "type": "address"
        }
      ],
      "stateMutability": "nonpayable",
      "type": "constructor"
    },
    {
      "anonymous": false,
      "inputs": [
        {
          "indexed": true,
          "internalType": "uint256",
          "name": "jobId",
          "type": "uint256"
        },
        {
          "indexed": true,
          "internalType": "address",
          "name": "client",
          "type": "address"
        },
        {
          "indexed": false,
          "internalType": "uint256",
          "name": "amount",
          "type": "uint256"
        }
      ],
      "name": "FundsDeposited",
      "type": "event"
    },
    {
      "anonymous": false,
      "inputs": [
        {
          "indexed": true,
          "internalType": "uint256",
          "name": "jobId",
          "type": "uint256"
        },
        {
          "indexed": true,
          "internalType": "address",
          "name": "client",
          "type": "address"
        }
      ],
      "name": "JobCancelled",
      "type": "event"
    },
    {
      "anonymous": false,
      "inputs": [
        {
          "indexed": true,
          "internalType": "uint256",
          "name": "jobId",
          "type": "uint256"
        },
        {
          "indexed": true,
          "internalType": "address",
          "name": "client",
          "type": "address"
        },
        {
          "indexed": false,
          "internalType": "string",
          "name": "description",
          "type": "string"
        },
        {
          "indexed": false,
          "internalType": "uint256",
          "name": "amount",
          "type": "uint256"
        }
      ],
      "name": "JobPosted",
      "type": "event"
    },
    {
      "anonymous": false,
      "inputs": [
        {
          "indexed": true,
          "internalType": "uint256",
          "name": "jobId",
          "type": "uint256"
        },
        {
          "indexed": true,
          "internalType": "address",
          "name": "client",
          "type": "address"
        },
        {
          "indexed": true,
          "internalType": "address",
          "name": "freelancer",
          "type": "address"
        },
        {
          "indexed": false,
          "internalType": "uint256",
          "name": "amount",
          "type": "uint256"
        }
      ],
      "name": "PaymentReleased",
      "type": "event"
    },
    {
      "anonymous": false,
      "inputs": [
        {
          "indexed": true,
          "internalType": "uint256",
          "name": "jobId",
          "type": "uint256"
        },
        {
          "indexed": true,
          "internalType": "address",
          "name": "freelancer",
          "type": "address"
        }
      ],
      "name": "WorkSubmitted",
      "type": "event"
    },
    {
      "inputs": [
        {
          "internalType": "uint256",
          "name": "_jobId",
          "type": "uint256"
        }
      ],
      "name": "cancelJob",
      "outputs": [],
      "stateMutability": "nonpayable",
      "type": "function"
    },
    {
      "inputs": [
        {
          "internalType": "uint256",
          "name": "_jobId",
          "type": "uint256"
        }
      ],
      "name": "depositFunds",
      "outputs": [],
      "stateMutability": "payable",
      "type": "function"
    },
    {
      "inputs": [
        {
          "internalType": "uint256",
          "name": "_jobId",
          "type": "uint256"
        }
      ],
      "name": "getJob",
      "outputs": [
        {
          "internalType": "address",
          "name": "client",
          "type": "address"
        },
        {
          "internalType": "address",
          "name": "freelancer",
          "type": "address"
        },
        {
          "internalType": "uint256",
          "name": "amount",
          "type": "uint256"
        },
        {
          "internalType": "string",
          "name": "description",
          "type": "string"
        },
        {
          "internalType": "bool",
          "name": "fundsDeposited",
          "type": "bool"
        },
        {
          "internalType": "bool",
          "name": "workSubmitted",
          "type": "bool"
        },
        {
          "internalType": "bool",
          "name": "paymentReleased",
          "type": "bool"
        },
        {
          "internalType": "bool",
          "name": "cancelled",
          "type": "bool"
        }
      ],
      "stateMutability": "view",
      "type": "function"
    },
    {
      "inputs": [
        {
          "internalType": "uint256",
          "name": "",
          "type": "uint256"
        }
      ],
      "name": "jobs",
      "outputs": [
        {
          "internalType": "address payable",
          "name": "client",
          "type": "address"
        },
        {
          "internalType": "address payable",
          "name": "freelancer",
          "type": "address"
        },
        {
          "internalType": "uint256",
          "name": "amount",
          "type": "uint256"
        },
        {
          "internalType": "string",
          "name": "description",
          "type": "string"
        },
        {
          "internalType": "bool",
          "name": "fundsDeposited",
          "type": "bool"
        },
        {
          "internalType": "bool",
          "name": "workSubmitted",
          "type": "bool"
        },
        {
          "internalType": "bool",
          "name": "paymentReleased",
          "type": "bool"
        },
        {
          "internalType": "bool",
          "name": "cancelled",
          "type": "bool"
        }
      ],
      "stateMutability": "view",
      "type": "function"
    },
    {
      "inputs": [],
      "name": "nextJobId",
      "outputs": [
        {
          "internalType": "uint256",
          "name": "",
          "type": "uint256"
        }
      ],
      "stateMutability": "view",
      "type": "function"
    },
    {
      "inputs": [
        {
          "internalType": "address",
          "name": "_freelancer",
          "type": "address"
        },
        {
          "internalType": "string",
          "name": "_description",
          "type": "string"
        },
        {
          "internalType": "uint256",
          "name": "_amount",
          "type": "uint256"
        }
      ],
      "name": "postJob",
      "outputs": [],
      "stateMutability": "nonpayable",
      "type": "function"
    },
    {
      "inputs": [
        {
          "internalType": "uint256",
          "name": "_jobId",
          "type": "uint256"
        }
      ],
      "name": "releasePayment",
      "outputs": [],
      "stateMutability": "nonpayable",
      "type": "function"
    },
    {
      "inputs": [
        {
          "internalType": "uint256",
          "name": "_jobId",
          "type": "uint256"
        }
      ],
      "name": "submitWork",
      "outputs": [],
      "stateMutability": "nonpayable",
      "type": "function"
    },
    {
      "inputs": [],
      "name": "userRegistry",
      "outputs": [
        {
          "internalType": "contract UserRegistry",
          "name": "",
          "type": "address"
        }
      ],
      "stateMutability": "view",
      "type": "function"
    },
    {
      "stateMutability": "payable",
      "type": "receive"
    }
  ],
  "bytecode": "0x60806040523480156200001157600080fd5b5060405162002c2038038062002c20833981810160405281019062000037919062000110565b600073ffffffffffffffffffffffffffffffffffffffff168173ffffffffffffffffffffffffffffffffffffffff161415620000aa576040517f08c379a0000000000000000000000000000000000000000000000000000000008152600401620000a190620001a4565b60405180910390fd5b806000806101000a81548173ffffffffffffffffffffffffffffffffffffffff021916908373ffffffffffffffffffffffffffffffffffffffff16021790555060016002819055505062000225565b6000815190506200010a816200020b565b92915050565b6000602082840312156200012357600080fd5b60006200013384828501620000f9565b91505092915050565b60006200014b602383620001c6565b91507f55736572526567697374727920616464726573732063616e6e6f74206265207a60008301527f65726f00000000000000000000000000000000000000000000000000000000006020830152604082019050919050565b60006020820190508181036000830152620001bf816200013c565b9050919050565b600082825260208201905092915050565b6000620001e482620001eb565b9050919050565b600073ffffffffffffffffffffffffffffffffffffffff82169050919050565b6200021681620001d7565b81146200022257600080fd5b50565b6129eb80620002356000396000f3fe60806040526004361061008a5760003560e01c806388685cd91161005957806388685cd914610183578063b0c2aa5e146101ac578063bf22c457146101d7578063c00e64ad1461021b578063c4c1152314610244576100ca565b8063180aedf3146100cf5780631dffa3dc146101135780633b76594d1461013c5780635c7460d614610158576100ca565b366100ca576040517f08c379a00000000000000000000000000000000000000000000000000000000081526004016100c19061257f565b60405180910390fd5b600080fd5b3480156100db57600080fd5b506100f660048036038101906100f1919061194a565b61026d565b60405161010a9897969594939291906122ca565b60405180910390f35b34801561011f57600080fd5b5061013a6004803603810190610135919061194a565b6103b1565b005b6101566004803603810190610151919061194a565b6107d4565b005b34801561016457600080fd5b5061016d610a9c565b60405161017a91906123d4565b60405180910390f35b34801561018f57600080fd5b506101aa60048036038101906101a5919061194a565b610ac0565b005b3480156101b857600080fd5b506101c1610e89565b6040516101ce91906126ff565b60405180910390f35b3480156101e357600080fd5b506101fe60048036038101906101f9919061194a565b610e8f565b60405161021298979695949392919061234f565b60405180910390f35b34801561022757600080fd5b50610242600480360381019061023d91906118ba565b610ff6565b005b34801561025057600080fd5b5061026b6004803603810190610266919061194a565b6114a8565b005b60016020528060005260406000206000915090508060000160009054906101000a900473ffffffffffffffffffffffffffffffffffffffff16908060010160009054906101000a900473ffffffffffffffffffffffffffffffffffffffff16908060020154908060030180546102e290612857565b80601f016020809104026020016040519081016040528092919081815260200182805461030e90612857565b801561035b5780601f106103305761010080835404028352916020019161035b565b820191906000526020600020905b81548152906001019060200180831161033e57829003601f168201915b5050505050908060040160009054906101000a900460ff16908060040160019054906101000a900460ff16908060040160029054906101000a900460ff16908060040160039054906101000a900460ff16905088565b60008054906101000a900473ffffffffffffffffffffffffffffffffffffffff1673ffffffffffffffffffffffffffffffffffffffff166384b7964f336040518263ffffffff1660e01b815260040161040a91906122af565b60206040518083038186803b15801561042257600080fd5b505afa158015610436573d6000803e3d6000fd5b505050506040513d601f19601f8201168201806040525081019061045a9190611921565b610499576040517f08c379a00000000000000000000000000000000000000000000000000000000081526004016104909061259f565b60405180910390fd5b3373ffffffffffffffffffffffffffffffffffffffff166001600083815260200190815260200160002060000160009054906101000a900473ffffffffffffffffffffffffffffffffffffffff1673ffffffffffffffffffffffffffffffffffffffff161461053d576040517f08c379a00000000000000000000000000000000000000000000000000000000081526004016105349061243f565b60405180910390fd5b6001600082815260200190815260200160002060040160009054906101000a900460ff166105a0576040517f08c379a0000000000000000000000000000000000000000000000000000000008152600401610597906124bf565b60405180910390fd5b6001600082815260200190815260200160002060040160019054906101000a900460ff1615610604576040517f08c379a00000000000000000000000000000000000000000000000000000000081526004016105fb9061245f565b60405180910390fd5b6001600082815260200190815260200160002060040160029054906101000a900460ff1615610668576040517f08c379a000000000000000000000000000000000000000000000000000000000815260040161065f906124df565b60405180910390fd5b6001600082815260200190815260200160002060040160039054906101000a900460ff16156106cc576040517f08c379a00000000000000000000000000000000000000000000000000000000081526004016106c39061269f565b60405180910390fd5b600180600083815260200190815260200160002060040160036101000a81548160ff0219169083151502179055506001600082815260200190815260200160002060000160009054906101000a900473ffffffffffffffffffffffffffffffffffffffff1673ffffffffffffffffffffffffffffffffffffffff166108fc60016000848152602001908152602001600020600201549081150290604051600060405180830381858888f1935050505015801561078c573d6000803e3d6000fd5b503373ffffffffffffffffffffffffffffffffffffffff16817ff1ab0865975dad5c69ae8e4baaf13114c875728afa7cc86368534c22a631d0b060405160405180910390a350565b60008054906101000a900473ffffffffffffffffffffffffffffffffffffffff1673ffffffffffffffffffffffffffffffffffffffff166384b7964f336040518263ffffffff1660e01b815260040161082d91906122af565b60206040518083038186803b15801561084557600080fd5b505afa158015610859573d6000803e3d6000fd5b505050506040513d601f19601f8201168201806040525081019061087d9190611921565b6108bc576040517f08c379a00000000000000000000000000000000000000000000000000000000081526004016108b39061251f565b60405180910390fd5b3373ffffffffffffffffffffffffffffffffffffffff166001600083815260200190815260200160002060000160009054906101000a900473ffffffffffffffffffffffffffffffffffffffff1673ffffffffffffffffffffffffffffffffffffffff1614610960576040517f08c379a00000000000000000000000000000000000000000000000000000000081526004016109579061249f565b60405180910390fd5b6001600082815260200190815260200160002060040160009054906101000a900460ff16156109c4576040517f08c379a00000000000000000000000000000000000000000000000000000000081526004016109bb9061247f565b60405180910390fd5b60016000828152602001908152602001600020600201543414610a1c576040517f08c379a0000000000000000000000000000000000000000000000000000000008152600401610a139061267f565b60405180910390fd5b600180600083815260200190815260200160002060040160006101000a81548160ff0219169083151502179055503373ffffffffffffffffffffffffffffffffffffffff16817fe030e47e27825a2ad1b19e4cf2e70bfbfb3124af275c7727a82b114ba7b29a8534604051610a9191906126ff565b60405180910390a350565b60008054906101000a900473ffffffffffffffffffffffffffffffffffffffff1681565b60008054906101000a900473ffffffffffffffffffffffffffffffffffffffff1673ffffffffffffffffffffffffffffffffffffffff166384b7964f336040518263ffffffff1660e01b8152600401610b1991906122af565b60206040518083038186803b158015610b3157600080fd5b505afa158015610b45573d6000803e3d6000fd5b505050506040513d601f19601f82011682018060405250810190610b699190611921565b610ba8576040517f08c379a0000000000000000000000000000000000000000000000000000000008152600401610b9f9061261f565b60405180910390fd5b3373ffffffffffffffffffffffffffffffffffffffff166001600083815260200190815260200160002060000160009054906101000a900473ffffffffffffffffffffffffffffffffffffffff1673ffffffffffffffffffffffffffffffffffffffff1614610c4c576040517f08c379a0000000000000000000000000000000000000000000000000000000008152600401610c43906125bf565b60405180910390fd5b6001600082815260200190815260200160002060040160019054906101000a900460ff16610caf576040517f08c379a0000000000000000000000000000000000000000000000000000000008152600401610ca6906126bf565b60405180910390fd5b6001600082815260200190815260200160002060040160029054906101000a900460ff1615610d13576040517f08c379a0000000000000000000000000000000000000000000000000000000008152600401610d0a906124ff565b60405180910390fd5b600180600083815260200190815260200160002060040160026101000a81548160ff0219169083151502179055506001600082815260200190815260200160002060010160009054906101000a900473ffffffffffffffffffffffffffffffffffffffff1673ffffffffffffffffffffffffffffffffffffffff166108fc60016000848152602001908152602001600020600201549081150290604051600060405180830381858888f19350505050158015610dd3573d6000803e3d6000fd5b506001600082815260200190815260200160002060010160009054906101000a900473ffffffffffffffffffffffffffffffffffffffff1673ffffffffffffffffffffffffffffffffffffffff163373ffffffffffffffffffffffffffffffffffffffff16827f23a1f1d698899279655350f84344b87245426099e1c060807bd35275582d2d0e6001600086815260200190815260200160002060020154604051610e7e91906126ff565b60405180910390a450565b60025481565b600080600060606000806000806000600160008b815260200190815260200160002090508060000160009054906101000a900473ffffffffffffffffffffffffffffffffffffffff168160010160009054906101000a900473ffffffffffffffffffffffffffffffffffffffff168260020154836003018460040160009054906101000a900460ff168560040160019054906101000a900460ff168660040160029054906101000a900460ff168760040160039054906101000a900460ff16848054610f5a90612857565b80601f0160208091040260200160405190810160405280929190818152602001828054610f8690612857565b8015610fd35780601f10610fa857610100808354040283529160200191610fd3565b820191906000526020600020905b815481529060010190602001808311610fb657829003601f168201915b505050505094509850985098509850985098509850985050919395975091939597565b60008054906101000a900473ffffffffffffffffffffffffffffffffffffffff1673ffffffffffffffffffffffffffffffffffffffff166384b7964f336040518263ffffffff1660e01b815260040161104f91906122af565b60206040518083038186803b15801561106757600080fd5b505afa15801561107b573d6000803e3d6000fd5b505050506040513d601f19601f8201168201806040525081019061109f9190611921565b6110de576040517f08c379a00000000000000000000000000000000000000000000000000000000081526004016110d59061241f565b60405180910390fd5b60008054906101000a900473ffffffffffffffffffffffffffffffffffffffff1673ffffffffffffffffffffffffffffffffffffffff1663be597e2d846040518263ffffffff1660e01b815260040161113791906122af565b60206040518083038186803b15801561114f57600080fd5b505afa158015611163573d6000803e3d6000fd5b505050506040513d601f19601f820116820180604052508101906111879190611921565b6111c6576040517f08c379a00000000000000000000000000000000000000000000000000000000081526004016111bd9061263f565b60405180910390fd5b600073ffffffffffffffffffffffffffffffffffffffff168373ffffffffffffffffffffffffffffffffffffffff161415611236576040517f08c379a000000000000000000000000000000000000000000000000000000000815260040161122d9061253f565b60405180910390fd5b60008111611279576040517f08c379a0000000000000000000000000000000000000000000000000000000008152600401611270906125df565b60405180910390fd5b6040518061010001604052803373ffffffffffffffffffffffffffffffffffffffff1681526020018473ffffffffffffffffffffffffffffffffffffffff1681526020018281526020018381526020016000151581526020016000151581526020016000151581526020016000151581525060016000600254815260200190815260200160002060008201518160000160006101000a81548173ffffffffffffffffffffffffffffffffffffffff021916908373ffffffffffffffffffffffffffffffffffffffff16021790555060208201518160010160006101000a81548173ffffffffffffffffffffffffffffffffffffffff021916908373ffffffffffffffffffffffffffffffffffffffff1602179055506040820151816002015560608201518160030190805190602001906113b4929190611770565b5060808201518160040160006101000a81548160ff02191690831515021790555060a08201518160040160016101000a81548160ff02191690831515021790555060c08201518160040160026101000a81548160ff02191690831515021790555060e08201518160040160036101000a81548160ff0219169083151502179055509050503373ffffffffffffffffffffffffffffffffffffffff166002547fd347156c0e050f531434f3eac5fc2137040ab077ca656f465275ebe566aaf11584846040516114839291906123ef565b60405180910390a36002600081548092919061149e90612889565b9190505550505050565b60008054906101000a900473ffffffffffffffffffffffffffffffffffffffff1673ffffffffffffffffffffffffffffffffffffffff1663be597e2d336040518263ffffffff1660e01b815260040161150191906122af565b60206040518083038186803b15801561151957600080fd5b505afa15801561152d573d6000803e3d6000fd5b505050506040513d601f19601f820116820180604052508101906115519190611921565b611590576040517f08c379a0000000000000000000000000000000000000000000000000000000008152600401611587906125ff565b60405180910390fd5b3373ffffffffffffffffffffffffffffffffffffffff166001600083815260200190815260200160002060010160009054906101000a900473ffffffffffffffffffffffffffffffffffffffff1673ffffffffffffffffffffffffffffffffffffffff1614611634576040517f08c379a000000000000000000000000000000000000000000000000000000000815260040161162b9061255f565b60405180910390fd5b6001600082815260200190815260200160002060040160009054906101000a900460ff16611697576040517f08c379a000000000000000000000000000000000000000000000000000000000815260040161168e9061265f565b60405180910390fd5b6001600082815260200190815260200160002060040160019054906101000a900460ff16156116fb576040517f08c379a00000000000000000000000000000000000000000000000000000000081526004016116f2906126df565b60405180910390fd5b600180600083815260200190815260200160002060040160016101000a81548160ff0219169083151502179055503373ffffffffffffffffffffffffffffffffffffffff16817f2e1034180f85502b3a04560be6ed4c24fe9b9c9e0bd7f4e09720494ac48859fa60405160405180910390a350565b82805461177c90612857565b90600052602060002090601f01602090048101928261179e57600085556117e5565b82601f106117b757805160ff19168380011785556117e5565b828001600101855582156117e5579182015b828111156117e45782518255916020019190600101906117c9565b5b5090506117f291906117f6565b5090565b5b8082111561180f5760008160009055506001016117f7565b5090565b60006118266118218461274b565b61271a565b90508281526020810184848401111561183e57600080fd5b611849848285612815565b509392505050565b60008135905061186081612970565b92915050565b60008151905061187581612987565b92915050565b600082601f83011261188c57600080fd5b813561189c848260208601611813565b91505092915050565b6000813590506118b48161299e565b92915050565b6000806000606084860312156118cf57600080fd5b60006118dd86828701611851565b935050602084013567ffffffffffffffff8111156118fa57600080fd5b6119068682870161187b565b9250506040611917868287016118a5565b9150509250925092565b60006020828403121561193357600080fd5b600061194184828501611866565b91505092915050565b60006020828403121561195c57600080fd5b600061196a848285016118a5565b91505092915050565b61197c816127a9565b82525050565b61198b81612797565b82525050565b61199a816127bb565b82525050565b6119a9816127f1565b82525050565b60006119ba8261277b565b6119c48185612786565b93506119d4818560208601612824565b6119dd8161295f565b840191505092915050565b60006119f5602583612786565b91507f4f6e6c79207265676973746572656420636c69656e74732063616e20706f737460008301527f206a6f62730000000000000000000000000000000000000000000000000000006020830152604082019050919050565b6000611a5b602383612786565b91507f4f6e6c792074686520636c69656e742063616e2063616e63656c20746869732060008301527f6a6f6200000000000000000000000000000000000000000000000000000000006020830152604082019050919050565b6000611ac1602f83612786565b91507f43616e6e6f742063616e63656c206a6f6220616674657220776f726b2068617360008301527f206265656e207375626d697474656400000000000000000000000000000000006020830152604082019050919050565b6000611b27602483612786565b91507f46756e647320616c7265616479206465706f736974656420666f72207468697360008301527f206a6f62000000000000000000000000000000000000000000000000000000006020830152604082019050919050565b6000611b8d602e83612786565b91507f4f6e6c792074686520636c69656e742063616e206465706f7369742066756e6460008301527f7320666f722074686973206a6f620000000000000000000000000000000000006020830152604082019050919050565b6000611bf3602983612786565b91507f46756e6473206d757374206265206465706f736974656420746f2063616e636560008301527f6c20746865206a6f6200000000000000000000000000000000000000000000006020830152604082019050919050565b6000611c59601883612786565b91507f5061796d656e7420616c72656164792072656c656173656400000000000000006000830152602082019050919050565b6000611c99602583612786565b91507f5061796d656e7420616c72656164792072656c656173656420666f722074686960008301527f73206a6f620000000000000000000000000000000000000000000000000000006020830152604082019050919050565b6000611cff602983612786565b91507f4f6e6c79207265676973746572656420636c69656e74732063616e206465706f60008301527f7369742066756e647300000000000000000000000000000000000000000000006020830152604082019050919050565b6000611d65602183612786565b91507f467265656c616e63657220616464726573732063616e6e6f74206265207a657260008301527f6f000000000000000000000000000000000000000000000000000000000000006020830152604082019050919050565b6000611dcb603083612786565b91507f4f6e6c792074686520667265656c616e6365722063616e207375626d6974207760008301527f6f726b20666f722074686973206a6f62000000000000000000000000000000006020830152604082019050919050565b6000611e31603a83612786565b91507f446972656374204574686572207472616e7366657273206e6f7420616c6c6f7760008301527f656420776974686f757420612066756e6374696f6e2063616c6c0000000000006020830152604082019050919050565b6000611e97602783612786565b91507f4f6e6c79207265676973746572656420636c69656e74732063616e2063616e6360008301527f656c206a6f6273000000000000000000000000000000000000000000000000006020830152604082019050919050565b6000611efd603083612786565b91507f4f6e6c792074686520636c69656e742063616e2072656c65617365207061796d60008301527f656e7420666f722074686973206a6f62000000000000000000000000000000006020830152604082019050919050565b6000611f63602483612786565b91507f4a6f6220616d6f756e74206d7573742062652067726561746572207468616e2060008301527f7a65726f000000000000000000000000000000000000000000000000000000006020830152604082019050919050565b6000611fc9602b83612786565b91507f4f6e6c79207265676973746572656420667265656c616e636572732063616e2060008301527f7375626d697420776f726b0000000000000000000000000000000000000000006020830152604082019050919050565b600061202f602b83612786565b91507f4f6e6c79207265676973746572656420636c69656e74732063616e2072656c6560008301527f617365207061796d656e740000000000000000000000000000000000000000006020830152604082019050919050565b6000612095601d83612786565b91507f467265656c616e636572206d75737420626520726567697374657265640000006000830152602082019050919050565b60006120d5603483612786565b91507f46756e6473206d757374206265206465706f7369746564206265666f7265207760008301527f6f726b2063616e206265207375626d69747465640000000000000000000000006020830152604082019050919050565b600061213b602683612786565b91507f4465706f736974656420616d6f756e74206d757374206d61746368206a6f622060008301527f616d6f756e7400000000000000000000000000000000000000000000000000006020830152604082019050919050565b60006121a1601883612786565b91507f4a6f6220697320616c72656164792063616e63656c6c656400000000000000006000830152602082019050919050565b60006121e1603583612786565b91507f576f726b206d757374206265207375626d6974746564206265666f726520706160008301527f796d656e742063616e2062652072656c656173656400000000000000000000006020830152604082019050919050565b6000612247602383612786565b91507f576f726b20616c7265616479207375626d697474656420666f7220746869732060008301527f6a6f6200000000000000000000000000000000000000000000000000000000006020830152604082019050919050565b6122a9816127e7565b82525050565b60006020820190506122c46000830184611982565b92915050565b6000610100820190506122e0600083018b611973565b6122ed602083018a611973565b6122fa60408301896122a0565b818103606083015261230c81886119af565b905061231b6080830187611991565b61232860a0830186611991565b61233560c0830185611991565b61234260e0830184611991565b9998505050505050505050565b600061010082019050612365600083018b611982565b612372602083018a611982565b61237f60408301896122a0565b818103606083015261239181886119af565b90506123a06080830187611991565b6123ad60a0830186611991565b6123ba60c0830185611991565b6123c760e0830184611991565b9998505050505050505050565b60006020820190506123e960008301846119a0565b92915050565b6000604082019050818103600083015261240981856119af565b905061241860208301846122a0565b9392505050565b60006020820190508181036000830152612438816119e8565b9050919050565b6000602082019050818103600083015261245881611a4e565b9050919050565b6000602082019050818103600083015261247881611ab4565b9050919050565b6000602082019050818103600083015261249881611b1a565b9050919050565b600060208201905081810360008301526124b881611b80565b9050919050565b600060208201905081810360008301526124d881611be6565b9050919050565b600060208201905081810360008301526124f881611c4c565b9050919050565b6000602082019050818103600083015261251881611c8c565b9050919050565b6000602082019050818103600083015261253881611cf2565b9050919050565b6000602082019050818103600083015261255881611d58565b9050919050565b6000602082019050818103600083015261257881611dbe565b9050919050565b6000602082019050818103600083015261259881611e24565b9050919050565b600060208201905081810360008301526125b881611e8a565b9050919050565b600060208201905081810360008301526125d881611ef0565b9050919050565b600060208201905081810360008301526125f881611f56565b9050919050565b6000602082019050818103600083015261261881611fbc565b9050919050565b6000602082019050818103600083015261263881612022565b9050919050565b6000602082019050818103600083015261265881612088565b9050919050565b60006020820190508181036000830152612678816120c8565b9050919050565b600060208201905081810360008301526126988161212e565b9050919050565b600060208201905081810360008301526126b881612194565b9050919050565b600060208201905081810360008301526126d8816121d4565b9050919050565b600060208201905081810360008301526126f88161223a565b9050919050565b600060208201905061271460008301846122a0565b92915050565b6000604051905081810181811067ffffffffffffffff8211171561274157612740612930565b5b8060405250919050565b600067ffffffffffffffff82111561276657612765612930565b5b601f19601f8301169050602081019050919050565b600081519050919050565b600082825260208201905092915050565b60006127a2826127c7565b9050919050565b60006127b4826127c7565b9050919050565b60008115159050919050565b600073ffffffffffffffffffffffffffffffffffffffff82169050919050565b6000819050919050565b60006127fc82612803565b9050919050565b600061280e826127c7565b9050919050565b82818337600083830152505050565b60005b83811015612842578082015181840152602081019050612827565b83811115612851576000848401525b50505050565b6000600282049050600182168061286f57607f821691505b6020821081141561288357612882612901565b5b50919050565b6000612894826127e7565b91507fffffffffffffffffffffffffffffffffffffffffffffffffffffffffffffffff8214156128c7576128c66128d2565b5b600182019050919050565b7f4e487b7100000000000000000000000000000000000000000000000000000000600052601160045260246000fd5b7f4e487b7100000000000000000000000000000000000000000000000000000000600052602260045260246000fd5b7f4e487b7100000000000000000000000000000000000000000000000000000000600052604160045260246000fd5b6000601f19601f8301169050919050565b61297981612797565b811461298457600080fd5b50565b612990816127bb565b811461299b57600080fd5b50565b6129a7816127e7565b81146129b257600080fd5b5056fea2646970667358221220d90e9c44f527dc7f6002b36f266c3e8fc1227494d6ddefbb7200c7379f42430764736f6c63430008000033",
  "linkReferences": {},
  "deployedLinkReferences": {}
}