{
  "_format": "hh-sol-artifact-1",
  "contractName": "UserRegistry",
  "sourceName": "contracts/UserRegistry.sol",
  "abi": [
    {
      "anonymous": false,
      "inputs": [
        {
          "indexed": true,
          "internalType": "address",
          "name": "user",
          "type": "address"
        },
        {
          "indexed": false,
          "internalType": "enum UserRegistry.UserRole",
          "name": "role",
          "type": "uint8"
        }
      ],
      "name": "UserRegistered",
      "type": "event"
    },
    {
      "inputs": [
        {
          "internalType": "address",
          "name": "_user",
          "type": "address"
        }
      ],
      "name": "isClient",
      "outputs": [
        {
          "internalType": "bool",
          "name": "",
          "type": "bool"
        }
      ],
      "stateMutability": "view",
      "type": "function"
    },
    {
      "inputs": [
        {
          "internalType": "address",
          "name": "_user",
          "type": "address"
        }
      ],
      "name": "isFreelancer",
      "outputs": [
        {
          "internalType": "bool",
          "name": "",
          "type": "bool"
        }
      ],
      "stateMutability": "view",
      "type": "function"
    },
    {
      "inputs": [],
      "name": "registerClient",
      "outputs": [],
      "stateMutability": "nonpayable",
      "type": "function"
    },
    {
      "inputs": [],
      "name": "registerFreelancer",
      "outputs": [],
      "stateMutability": "nonpayable",
      "type": "function"
    },
    {
      "inputs": [
        {
          "internalType": "address",
          "name": "",
          "type": "address"
        }
      ],
      "name": "userRoles",
      "outputs": [
        {
          "internalType": "enum UserRegistry.UserRole",
          "name": "",
          "type": "uint8"
        }
      ],
      "stateMutability": "view",
      "type": "function"
    }
  ],
  "bytecode": "0x608060405234801561001057600080fd5b5061085d806100206000396000f3fe608060405234801561001057600080fd5b50600436106100575760003560e01c80636d9fb2871461005c57806374d5e100146100665780637721710e1461009657806384b7964f146100a0578063be597e2d146100d0575b600080fd5b610064610100565b005b610080600480360381019061007b919061067c565b6102dc565b60405161008d919061071e565b60405180910390f35b61009e6102fc565b005b6100ba60048036038101906100b5919061067c565b6104d8565b6040516100c79190610703565b60405180910390f35b6100ea60048036038101906100e5919061067c565b6105a0565b6040516100f79190610703565b60405180910390f35b6000600281111561013a577f4e487b7100000000000000000000000000000000000000000000000000000000600052602160045260246000fd5b6000803373ffffffffffffffffffffffffffffffffffffffff1673ffffffffffffffffffffffffffffffffffffffff16815260200190815260200160002060009054906101000a900460ff1660028111156101be577f4e487b7100000000000000000000000000000000000000000000000000000000600052602160045260246000fd5b146101fe576040517f08c379a00000000000000000000000000000000000000000000000000000000081526004016101f590610739565b60405180910390fd5b60016000803373ffffffffffffffffffffffffffffffffffffffff1673ffffffffffffffffffffffffffffffffffffffff16815260200190815260200160002060006101000a81548160ff02191690836002811115610286577f4e487b7100000000000000000000000000000000000000000000000000000000600052602160045260246000fd5b02179055503373ffffffffffffffffffffffffffffffffffffffff167f8e18574f8a7333e6a87112742a55853a643e2f0550f4e1a3a2c3f1bb2994441d60016040516102d2919061071e565b60405180910390a2565b60006020528060005260406000206000915054906101000a900460ff1681565b60006002811115610336577f4e487b7100000000000000000000000000000000000000000000000000000000600052602160045260246000fd5b6000803373ffffffffffffffffffffffffffffffffffffffff1673ffffffffffffffffffffffffffffffffffffffff16815260200190815260200160002060009054906101000a900460ff1660028111156103ba577f4e487b7100000000000000000000000000000000000000000000000000000000600052602160045260246000fd5b146103fa576040517f08c379a00000000000000000000000000000000000000000000000000000000081526004016103f190610739565b60405180910390fd5b60026000803373ffffffffffffffffffffffffffffffffffffffff1673ffffffffffffffffffffffffffffffffffffffff16815260200190815260200160002060006101000a81548160ff02191690836002811115610482577f4e487b7100000000000000000000000000000000000000000000000000000000600052602160045260246000fd5b02179055503373ffffffffffffffffffffffffffffffffffffffff167f8e18574f8a7333e6a87112742a55853a643e2f0550f4e1a3a2c3f1bb2994441d60026040516104ce919061071e565b60405180910390a2565b600060016002811115610514577f4e487b7100000000000000000000000000000000000000000000000000000000600052602160045260246000fd5b6000808473ffffffffffffffffffffffffffffffffffffffff1673ffffffffffffffffffffffffffffffffffffffff16815260200190815260200160002060009054906101000a900460ff166002811115610598577f4e487b7100000000000000000000000000000000000000000000000000000000600052602160045260246000fd5b149050919050565b60006002808111156105db577f4e487b7100000000000000000000000000000000000000000000000000000000600052602160045260246000fd5b6000808473ffffffffffffffffffffffffffffffffffffffff1673ffffffffffffffffffffffffffffffffffffffff16815260200190815260200160002060009054906101000a900460ff16600281111561065f577f4e487b7100000000000000000000000000000000000000000000000000000000600052602160045260246000fd5b149050919050565b60008135905061067681610810565b92915050565b60006020828403121561068e57600080fd5b600061069c84828501610667565b91505092915050565b6106ae8161077c565b82525050565b6106bd816107bb565b82525050565b60006106d0601783610759565b91507f5573657220616c726561647920726567697374657265640000000000000000006000830152602082019050919050565b600060208201905061071860008301846106a5565b92915050565b600060208201905061073360008301846106b4565b92915050565b60006020820190508181036000830152610752816106c3565b9050919050565b600082825260208201905092915050565b60006107758261079b565b9050919050565b60008115159050919050565b6000819050610796826107fc565b919050565b600073ffffffffffffffffffffffffffffffffffffffff82169050919050565b60006107c682610788565b9050919050565b7f4e487b7100000000000000000000000000000000000000000000000000000000600052602160045260246000fd5b6003811061080d5761080c6107cd565b5b50565b6108198161076a565b811461082457600080fd5b5056fea2646970667358221220e2526bbef7ba2f4404dc92c6a075498015e96e235a0df0d3807db9058aa532c964736f6c63430008000033",
  "linkReferences": {},
  "deployedLinkReferences": {}
}